:10000000081C0020111C0000651C0000A91A00003B
:10001000A91A0000A91A0000A91A0000A91A0000D4
:10002000A91A0000A91A0000A91A0000B1160000C0
:10003000A91A0000A91A00006D160000A91A0000F4
:10004000D51B00000B800000D51B0000D51B000055
:10005000D51B0000D51B0000D51B0000D51B0000E0
:10006000D51B0000D51B0000D51B0000D51B0000D0
:10007000D51B0000D51B0000D51B0000D51B0000C0
:10008000D51B0000D51B0000D51B0000D51B0000B0
:10009000D51B0000D51B0000D51B0000D51B0000A0
:1000A000D51B0000D51B0000D51B0000D51B000090
:1000B000D51B0000D51B0000D51B0000D51B000080
:1000C000D51B0000D51B0000D51B0000D51B000070
:1000D000D51B0000D51B0000D51B0000D51B000060
:1000E000D51B0000D51B0000D51B0000D51B000050
:1000F000D51B0000D51B0000D51B0000D51B000040
:1001000000000000D512000000000000211A0000CD
:10011000D82B0020F19A000000000000211A0000F6
:1001200000000000211A000000000000211A000059
:10013000000000008993000000000000211A000068
:1001400000000000211A000000000000211A000039
:1001500000000000211A000000000000D17F000014
:1001600000000000211A0000E42B0020599E00002E
:1001700000000000211A000000000000211A000009
:1001800000000000211A000000000000D11400004F
:1001900000000000211A000000000000211A0000E9
:1001A00000000000211A000000000000211A0000D9
:1001B00000000000211A000000000000211A0000C9
:1001C000000000000580000000000000211A00006F
:1001D00000000000211A000000000000211A0000A9
:1001E00000000000211A000000000000211A000099
:1001F00000000000211A000000000000211A000089
:1002000000000000211A000000000000211A000078
:1002100000000000211A000000000000211A000068
:1002200000000000211A000000000000211A000058
:1002300000000000211A000000000000211A000048
:1002400000000000211A000000000000211A000038
:1002500000000000211A000000000000211A000028
:1002600000000000211A000000000000211A000018
:1002700000000000211A000000000000211A000008
:1002800053B94AB9002908BF00281CBF4FF0FF31FD
:100290004FF0FF3000F086B9ADF1080C6DE904CEE7
:1002A00000F01AF8DDF804E0DDE9022304B070473D
:1002B000430803F05533C01A830803F0333300F0CA
:1002C0003330184400EB101000F00F3000EB00202A
:1002D00000EB0040000E70472DE9F047089E0446F1
:1002E0008846002B4BD18A42154667D9B2FA82F272
:1002F0004AB1C2F1200701FA02F320FA07F795404C
:1003000047EA030894404FEA154E230CB8FBFEF76A
:100310001FFA85FC0EFB178843EA084307FB0CF124
:10032000994209D9EB1807F1FF3080F01B819942FF
:1003300040F21881023F2B445B1AA4B2B3FBFEF0DB
:100340000EFB103344EA034400FB0CFCA44509D91E
:100350002C1900F1FF3380F00781A44540F204819D
:1003600002382C4440EA0740A4EB0C0400271EB1DD
:10037000D4400023C6E900433946BDE8F0878B42EC
:1003800009D9002E00F0EB800027C6E900013846AD
:100390003946BDE8F087B3FA83F7002F47D18B4287
:1003A00002D3824200F2FA80841A61EB0303012037
:1003B0009846002EE0D0C6E90048DDE702B9FFDE2E
:1003C000B2FA82F2002A40F08F80491B4FEA154EA4
:1003D0001FFA85F80127B1FBFEFC230C0EFB1C1154
:1003E00043EA014308FB0CF1994207D9EB180CF1E1
:1003F000FF3002D2994200F2CD808446591AA3B24E
:10040000B1FBFEF00EFB101443EA044408FB00F8B5
:10041000A04507D92C1900F1FF3302D2A04500F204
:10042000B6801846A4EB080440EA0C409FE7C7F1E9
:10043000200CBB4022FA0CFE4EEA030E01FA07F430
:1004400020FA0CF521FA0CF34FEA1E482543B3FBC2
:10045000F8F92C0C08FB19331FFA8EFA44EA03430F
:1004600009FB0AF49C4202FA07F200FA07F10BD9E1
:100470001EEB030309F1FF3080F087809C4240F2BD
:100480008480A9F1020973441B1BADB2B3FBF8F0E1
:1004900008FB103345EA034400FB0AFAA24508D9D9
:1004A0001EEB040400F1FF336BD2A24569D9023878
:1004B000744440EA0940A0FB0289A4EB0A044C45BD
:1004C000C2464B4654D351D0002E69D0B1EB0A0539
:1004D00064EB030404FA0CFCFD40FC404CEA050507
:1004E000C6E90054002747E7C2F1200320FA03F7CA
:1004F000954001FA02F021FA03F34FEA154E384312
:10050000010CB3FBFEF71FFA85F80EFB173341EA27
:10051000034107FB08F38B4204FA02F407D9691878
:1005200007F1FF3C2FD28B422DD9023F2944CB1A31
:1005300081B2B3FBFEF00EFB103341EA034100FB36
:1005400008F38B4207D9691800F1FF3C17D28B42A0
:1005500015D902382944C91A40EA07473BE737460C
:10056000304609E70746E7E61846FBE64145ABD2C9
:10057000B8EB020A69EB0E0201381346A4E76046A5
:10058000E9E7184695E76746D1E781467CE70238F8
:100590002C4447E7ACF1020C2B442FE7384608E720
:1005A0003746E9E6704700BF436810B45C681346FD
:1005B000A4460A4610BC00216047436810B41C687A
:1005C0000A46A4460123002110BC604703689B68CB
:1005D00001F5E0711B68022243F8212070470000FA
:1005E00010B55B4C02212068FFF7F0FF2068042162
:1005F000FFF7ECFF20680621FFF7E8FF20680821DD
:10060000FFF7E4FF20680821FFF7E0FF20680821DA
:10061000FFF7DCFF20680821FFF7D8FF20680821DA
:10062000FFF7D4FF20680821FFF7D0FF20680B21D7
:10063000FFF7CCFF0C212068FFF7BFFF01220C2140
:100640002068FFF7B1FF20680D21FFF7BFFF20688A
:100650000E21FFF7BBFF20680F21FFF7B7FF2068CF
:100660001021FFF7B3FF20681121FFF7AFFF2068CB
:100670001421FFF7ABFF20681521FFF7A7FF2068C3
:100680001621FFF7A3FF20681721FFF79FFF2068BF
:100690001821FFF79BFF20681921FFF797FF2068BB
:1006A0001A21FFF793FF20681B21FFF78FFF2068B7
:1006B0001C21FFF78BFF20681D21FFF787FF2068B3
:1006C0001E21FFF783FF2068224C1F21FFF77EFFCA
:1006D00020680121FFF77AFF20680221FFF776FFEB
:1006E00020680321FFF772FF20680421FFF76EFFE7
:1006F00020680521FFF76AFF20680621FFF766FFE3
:1007000020680721FFF762FF20680921FFF75EFFDD
:1007100020680A21FFF75AFF20680B21FFF756FFD8
:100720000C212068FFF749FF01220C212068FFF708
:100730003BFF20680D21FFF749FF20680E21FFF7DE
:1007400045FF20680F21BDE81040FFF73FBF00BF05
:10075000A80E0020AC0E002038B50D480D4D09F054
:10076000EDFB0D4B18600D4809F0E8FB0C4B1860D1
:100770000C4809F0E3FBFFF733FF0A2442F2107044
:100780000AF0AEF82146284600F0A6FB0A34F5E749
:10079000D9B10000EEB10000A80E0020E0B10000C9
:1007A000AC0E0020E7B1000010B54FF02003EFF3CE
:1007B000118483F3118800F0CBFB084A0123C2F8AF
:1007C00040354FF08042C2F87835054B4FF0FF328C
:1007D0009A62DA6284F31188002010BD00E00140C3
:1007E00000ED00E008B50446084611461A46A04749
:1007F0000AF0A2F801F0C8F970B5C668C07A0C25F5
:100800004D43884206EB0504B4BF715921462024AC
:1008100092FBF4F401EB8401196002F01F0070BD3B
:1008200007B501ABFFF7E8FF019A012303FA00F0D7
:1008300013680343136003B05DF804FB07B501AB15
:10084000FFF7DAFF019A012303FA00F0136823EAA5
:100850000003136003B05DF804FB2DE9F843044680
:1008600043680589006894F80AC05D432844002164
:100870004FF00C0E8C4505DC00252389AB4222DCB1
:10088000BDE8F883D4F80C80B5FBF3F20EFB01F75A
:100890001F2A08EB0706C8BF1F324FEA930306F171
:1008A0000409C8BF520903F10303C6E9019923F003
:1008B0000303D4BFE17248F8070001F10101C8BF8A
:1008C00000EB8200D6E76268E36820686A4381181B
:1008D0001E1D86509A684A609A6820461160996089
:1008E0002A460021FFF79CFF0135C6E72DE9F04FAE
:1008F00089B0867A00AFC7E90132B3000A3303F446
:10090000FF63ADEB030D4368E94603334A4623F02A
:10091000030342F8043905464FF0FF3400234FF03B
:100920000C0C581E9E42F86109DD2BB1106880083E
:10093000033020F003005060506888420BD2FB69FE
:10094000013314D1BA6C002313606FF00B0024370D
:10095000BD46BDE8F08FE8680CFB030000F1040E13
:1009600040680432704518BF1C460133D9E7631C48
:10097000E8D0E96859F824200C2303FB041353F84A
:10098000046F9E4263D0D6E90013196031684B6052
:100990002B682146F31A284693FBF2F2FFF74EFF2D
:1009A000A9EB890304F1010B3B6109EB8404F969AC
:1009B0002B680BF1FF329142A6EB03030DDCBA6802
:1009C0001146FA690A6059F8222093FBF2F37A681B
:1009D0001360BB6C00201E60B9E754F8042B93FB36
:1009E000F2F33A699B00FB6004EB440313447B6120
:1009F0004FF0010AD4F800800AFB08F3BB61F3183A
:100A00003B60FB6859460AEB03022846FFF708FFE4
:100A10003B682A68298908F1FF389844A8EB020846
:100A20006A684A4390450AD2EA687969B8690A4413
:100A3000111D31509168596091680B6093600AF103
:100A4000010ABAF1040FD5D10BF1010BAFE76FF03A
:100A50000A007CE72DE9F04F85B0837A9B000A33CA
:100A600003F4FF6300AFADEB030D4368EA460333C5
:100A700023F003030546CAF80030544601208142A2
:100A80004CD20C4616463246214628465AF8248057
:100A9000D5F80090FFF7C4FE002C48D007F10C03F6
:100AA000324621462846FFF7A7FEFA68042390FB4A
:100AB000F3F083001068D84000F00F000F2836D103
:100AC00026F003034FF000097B6008F1FF3B7B68D1
:100AD0004B441A46214628463B60FFF7AFFE3B6871
:100AE0009E4212D008FB03F2B5F808E06B68296853
:100AF00002EB0B0C03FB0EF39C4501EB020004D24E
:100B000040688B5803608B58586009F10109B9F1AE
:100B1000040FDCD196FBF9F6013CB4E723689B088F
:100B2000033323F0030344F8043F0130A7E708FB35
:100B300006F62A68696809EB060308F1FF3898444D
:100B4000A8EB02082A89514388450BD2E9680C2298
:100B500002FB0414221D49F80620A2685A60A2680C
:100B60001360A3601437BD46BDE8F08F00207047C6
:100B70000B6801330B60014B1B6818476829002084
:100B80002DE9F04F85B09B460E9CDFF890A0012C1C
:100B9000B8BF0124012B0CBF30232023154680460B
:100BA00089460194029301260A2700220AF10104D2
:100BB0000AB9AA451FD2B5FBF4F049463030C04708
:100BC00001360122013F012FB5FBF4F14FF00A037A
:100BD00004FB1155BAFBF3FAE8D1494605F13000A0
:100BE000C047BBF1030F03D1019B9C1B002C0FDC02
:100BF00005B0BDE8F08F019BBB42E3DBBBF1020F08
:100C0000E0D84946029803920136C047039AD9E7D3
:100C100049462020C047013CE8E700BFFFC99A3B96
:100C200030B58A680C68551C14B14B68934201DCDE
:100C30008D6030BD013B934208BF00228D600CBF28
:100C4000E254A054F5E70000014B1860704700BF64
:100C5000682900202DE9F04F89B01C464FF0000AAA
:100C6000531E06460F4604934FF0FF39D046002529
:100C700005E06DB9252800F012813946B047049B84
:100C800013F8010F04930028F3D109B0BDE8F08FE9
:100C9000642861D019D839280AD8312850D22D2893
:100CA0003CD030283DD0252808D13946B047DEE772
:100CB000582800F08880632800F0EB803946252012
:100CC000B047049B39461878F0E7702871D006D8F1
:100CD000692841D06C283CD06828D0D0EEE7752830
:100CE00057D017D87328E9D1236804F1040B1C46A8
:100CF000254615F8010B002840F0C080B8F1030F1D
:100D000040F0D680E41AA9EB0404002C00F3BC8068
:100D10005C46ACE7782856D07A28DEE74FF0030827
:100D2000ADE7B9F1000F0EDAB8F1000F00F0BD80A9
:100D3000A0F13009B8F1000F08BF4FF002089EE79C
:100D4000B9F1000FF4DB0A2303FB0909A9F130090B
:100D5000F0E70AF1010A92E7BAF1010FC5BF0734C3
:100D600024F0070325681D68D4BF043403F1080488
:100D7000002D05DA39462D20B0476D4209F1FF39C3
:100D8000CDF8009043462A4639463046FFF7F8FE34
:100D90006DE7BAF1010FC5BF073424F007032268DD
:100DA0001A68CDF80090CCBF03F108040434434620
:100DB000EAE739463020B04739467820B0474FF04F
:100DC00008094FF00108BAF1010FC7BF073424F03A
:100DD000070323680593C2BF03F108041B6805934A
:100DE0004FF008024FF00003D8BF04340393079379
:100DF00093460BF1FF3B059B4FEA8B0023FA00F073
:100E000010F00F0009D1079B13B9BBF1000F24D1DB
:100E10004FF0300C07E0069AEBE709288CBF4FF043
:100E2000570C4FF0300C394660440692B047039B94
:100E3000079501330393BBF1000FECD1B8F1030F19
:100E40007FF415AF039BC3EB4905002D7FF70FAF70
:100E500039462020B047013DF7E7531E91450693E0
:100E6000E9DBB8F1010F03D139463020B047E2E7A2
:100E7000B8F1020FDFD139462020F7E73946039356
:100E80002C46B047039B33E739462020B047013C4E
:100E90003BE72068251D3946B0472C46E7E6AA46C1
:100EA000A8464FF0FF390125E9E64FF00108E6E6D4
:100EB0005C460546E3E6000013B502AC002344F8A7
:100EC000043D02460B4603482146FFF7C3FE019846
:100ED00002B010BD710B00000FB407B504A951F8A2
:100EE000040B0191FFF7E8FF03B05DF804EB04B0D9
:100EF000704700000CB430B585B008ABCDE90101F6
:100F000053F8042B00930446002501A906480395D5
:100F1000FFF7A0FEDDE902309842B8BF255405B0C6
:100F2000BDE8304002B07047210C0000704700005F
:100F3000054B1B68082B01BF044B1868B0FA80F002
:100F4000400918BF00207047300100103401001024
:100F500008B54FF080430022C3F80C21C3F81021DC
:100F6000C3F838254FF0805203F54043D2F80414FB
:100F7000C3F82015D2F80814C3F82415D2F80C14BD
:100F8000C3F82815D2F81014C3F82C15D2F814148D
:100F9000C3F83015D2F81814C3F83415D2F81C145D
:100FA000C3F84015D2F82014C3F84415D2F824141D
:100FB000C3F84815D2F82814C3F84C15D2F82C14ED
:100FC000C3F85015D2F83014C3F85415D2F83414BD
:100FD000C3F86015D2F83814C3F86415D2F83C147D
:100FE000C3F86815D2F84014C3F86C15D2F844243D
:100FF000C3F87025FFF79CFF10B1334B334A1A60DA
:10100000FFF796FF18B1324BFB22C3F81825FFF704
:101010008FFF48B12F49304B0A681B6822F00F023E
:1010200003F00F0313430B60FFF782FF18B12B4B44
:101030004FF400721A604FF08043D3F80024D207B7
:1010400044BF6FF00102C3F800244FF01023D3F81F
:101050000022002A03DBD3F80432002B2FDA204BC6
:101060000122C3F80425D3F80024002AFBD04FF056
:1010700010221221C2F80012D3F80024002AFBD05B
:101080004FF010231222C3F80422154B1A46D3F84E
:1010900000140029FBD00021C3F80415D2F8003455
:1010A000002BFBD0BFF34F8F0E490F4BCA6802F4E1
:1010B000E0621343CB60BFF34F8F00BFFDE70B4BE4
:1010C0000B4A1A6008BD00BF8C56004048810300DF
:1010D00000F00040E40E004058020010409602402C
:1010E00000E0014000ED00E00400FA056C2900205A
:1010F0000090D00313B5114CBFF35B8F2068BFF392
:101100005B8F60B90E4808F019FFBFF35B8F54E89E
:10111000003F44E80002002AF9D1BFF35B8F436827
:1011200004221B680DEB02019847002802DA00F048
:1011300049FA0190019802B010BD00BF00000020E4
:1011400044B2000043685B68184700207047000005
:101150000A4B70B5C6B204461B6830469847012852
:101160000AD00A2C064D03D10D212868FFF7EAFFAB
:1011700031462868FFF7E6FF204670BD7029002041
:10118000040000200148FFF75FBD00BF51110000BF
:1011900008B5044808F0D2FE034B1860FFF7F2FFD1
:1011A000002008BDE7B100000400002010B54FF09A
:1011B0002003EFF3118283F31188114C237823B9B4
:1011C00082F311886FF0440010BD013BDBB2237045
:1011D00023B182F311886FF00F00F5E7094B1878FF
:1011E000012128B1217082F311886FF00A00EBE72A
:1011F000197082F31188044A11601870E4E700BF87
:101200000A000020090000200400004008B5002268
:101210001046012100F0ECFB002000F0B7FB00209D
:1012200008BD0000F8B54FF02002EFF3118382F300
:101230001188254A1078441C147060B183F311881A
:101240004FF08043D3F80C3413F4803F14BF0020D8
:101250006FF0430007E01D4D2F782FB1107083F31E
:1012600011886FF00A00F8BD01262E7083F31188F3
:101270004FF0804419B3384600F098FBC4F8007171
:10128000D4F80433C4F804632660D4F8002192B182
:101290000022C4F800210E4A13F0010F4FF00103A1
:1012A00008BFC4F808330020C2F8803100F06EFB9C
:1012B00000232B70C4E720BF40BF20BFE5E7C4F880
:1012C00000112660F4E700BF0A000020090000209A
:1012D00000E100E0F8B54FF080430546D3F808C1BF
:1012E000D3F80423D3F80C44D3F80071D3F80401E5
:1012F000D3F80C11D3F8106102F00102BCF1000F19
:1013000003D04FF0000CC3F808C127B14FF0804361
:101310000027C3F800713AB1E30341BF4FF08043A7
:101320000122C3F808231A6120B14FF08043002244
:10133000C3F8042149B14FF080440021C4F80C11D6
:101340002846FFF733FF0123636176B14FF08043F6
:1013500000210124C3F810112846C3F80443FFF705
:1013600061FF10B9014BC3F80041F8BD00E100E096
:10137000F8B506460C464FF02002EFF3118382F3D6
:1013800011882D4A157865B183F311884FF0804399
:10139000D3F8183413F4803F0CBF6FF043000020E3
:1013A000F8BD0127177083F31188284600F0FEFA74
:1013B0004FF080430221C3F80451D3F80423C3F84B
:1013C00004131E49C3F818450F60D3F8041171B314
:1013D00092071B4F58BF02224FF000014FF001054A
:1013E000C3F804114FF0000058BFC3F80823C7F832
:1013F000805100F0CBFA4FF0804300211822C3F84F
:101400000823C3F80C11C3F8101114F00301BDD167
:101410001020C3F83805C3F804233046C3F804533A
:10142000FFF700FF0028B1D1C7F80051AEE720BF99
:1014300040BF20BFC9E700BF0800002008000040EF
:1014400000E100E0084BC3F84005D3F80435C01AAA
:1014500020F07F40054B0238984282BF044B4FF486
:101460000032C3F80021704700100140FDFF7F00EB
:1014700000E100E038B5114B114CD3F804052268A7
:10148000104D801A2B6820F07F4083420FD8B0FBAC
:10149000F3F00D490968884228BF084600FB032382
:1014A00023F07F432360094B186009F0AFFA2068EE
:1014B0002B681844BDE83840FFF7C4BF0010014056
:1014C00010000020982B00200C000020942B0020FE
:1014D000024B0022C3F84021FFF7CCBF00100140AF
:1014E000084B00281A68084B93FBF2F302DB834297
:1014F000A8BF034605490B600549086802FB0300C5
:10150000FFF7A0BF982B0020FFFF7F000C000020FA
:101510001000002008B5074B0022C3F84021064BFD
:101520004FF40032C3F88021FFF7A4FF034B0122E0
:101530001A6008BD0010014000E100E00C0000202E
:1015400070B5194808F0FAFC50B34368174D1B6892
:1015500001219847164B00241C60164B01261E6083
:10156000154BC5F808451B68C5F840354FF4803366
:10157000C5F84433C5F80433104BC5F840414FF467
:101580000032C3F8802131462246112000F030FAA3
:10159000112000F0FBF90A4B20461E602E6070BD42
:1015A0004FF0FF30FBE700BF68B2000000100140C1
:1015B000100000200C000020982B002000E100E02B
:1015C000081001400A4A0B49D2F8043570B50D687D
:1015D000094ED6E90001D2F80445A34205D168437B
:1015E0001B1A23F07F43184470BD2346F1E700BF68
:1015F00000100140982B0020C80F00200748816888
:10160000006A884208D000B509F01CF95DF804EBC7
:1016100003494FF080520A6070470000940F002089
:1016200004ED00E0044800232021C2180133302BD0
:1016300082F80013F9D1704700E100E0084A094937
:1016400093680968D966084998664B6843F08053E7
:101650004B60002383F311889368D86E704700BFF6
:10166000940F002074B8000000ED00E0202080F30B
:1016700011880D498A684FF02C001044EFF3098C53
:1016800080E8F01F094F4FF000660A6A8A603E60EA
:10169000906E0023936680F3118802F12C0090E88D
:1016A000F01F8CF309887047940F002004ED00E0D0
:1016B0001EF0040F0CBFEFF30880EFF3098081697F
:1016C00031F8021C11F0FF010229FFD000B500F033
:1016D0002BFA00BD10B5044609F02EF92268014628
:1016E000BDE810400148FFF7F7BB00BFC1B30000E1
:1016F00038B504461A480D46FFF7EEFB04F1180012
:10170000184CFFF7E7FFA36AD90602D51648FFF782
:10171000E3FBA36A1A0702D51448FFF7DDFBA36AAF
:101720009B070ED51248FFF7D7FB616BA36A18061B
:1017300007D51048FFF7D0FB1DB1A36A23F0800343
:10174000A362084CA26AD20702D50B48FFF7C4FB7C
:10175000A36A9B0602D50948FFF7BEFB002038BDEF
:101760000BB4000000ED00E022B4000034B400002F
:1017700048B4000061B4000072B4000092B40000EC
:1017800010B504461A48FFF7A7FB04F11800194CDE
:10179000FFF7A0FFA36A9A0102D51748FFF79CFB49
:1017A000A36ADB0102D51548FFF796FBA36A18036D
:1017B00002D51348FFF790FB0E4CA36A590302D5DC
:1017C0001048FFF789FBA36A9A0302D50E48FFF77A
:1017D00083FBA36ADB0302D50C48FFF77DFB054AB8
:1017E000936A6FEA03436FEA13439362002010BDCC
:1017F000C2B4000000ED00E0DBB40000EFB4000074
:101800000AB5000029B500004FB500006AB5000018
:1018100038B504461D480D46FFF75EFB04F118007D
:101820001B4CFFF757FFA36AD80404D51948BDE83D
:101830003840FFF751BBA36A190501D51648F6E7F2
:10184000A36A9A0514D51548FFF746FBA16BA36A56
:101850001B0407D51248FFF73FFB1DB1A36A23F411
:101860000043A3620A4B9B6A58050ED50D48DEE77C
:10187000A36A5905FAD4A36ADA0501D50A48D6E75E
:10188000A36A9B0401D50948D1E738BD88B200009E
:1018900000ED00E022B4000034B400009FB200006C
:1018A00061B40000B9B20000D5B2000092B40000EB
:1018B00038B5274C6368C3F30803DA1E0546092AC6
:1018C0003BD8DFE802F0053436303A3A3A3A3A3853
:1018D0002048FFF701FBE36A9A0703D51E48FFF78C
:1018E000FBFA02E0E36A5B0001D4002009E01B4838
:1018F000FFF7F2FA1A4B1B7843B101212846FFF794
:10190000F7FE2946BDE8384000F012B9154B1B78A8
:1019100023B101212846FFF77BFFE6E7124B1B8826
:101920009BB2002BE1D02846FFF72AFFE9E7002110
:10193000E4E70021EEE70D48D1E70D480D49A3F19A
:1019400010020F2BD8BF01460B48FFF7C5FACCE7B2
:1019500000ED00E01CB3000034B3000056B30000FB
:1019600028ED00E029ED00E02AED00E076B300006C
:10197000EEB2000003B30000ADB30000024A5369A9
:1019800043F010035361704700ED00E043B2002BB9
:1019900008DB012200F01F0002FA00F05B09024A96
:1019A00042F82300704700BF00E100E043B2002B83
:1019B0000DDB01225B0900F01F0002FA00F020336A
:1019C000034A42F82300BFF34F8FBFF36F8F704776
:1019D00000E100E04209054B00F01F0053F822200F
:1019E000012303FA00F01040704700BF00E100E05F
:1019F00043B2002BA8BF03F1604301F101014FEA9C
:101A00004111AEBF03F5614300F00F00034BC9B2B3
:101A1000ACBF83F800131954704700BF14ED00E009
:101A200000F042B808B572B6044BD86918B100226C
:101A3000DA6108F0A9FA62B608BD00BF940F002071
:101A4000F8B50C4616461F4604220A9B099905461E
:101A500009F0F2F9A6F1200121440C4A21F0070116
:101A6000002322F00102C5E91433C5E917468A6153
:101A7000069A4A60079A8A60089ACA604FF0807294
:101A80000F60CA61E964AB66F8BD00BFE5070000FE
:101A9000014910220A60704710ED00E0404080F3D9
:101AA000118830BF704700BF404080F31188DFF8D5
:101AB0001CC0DCF800C01CF4006C0CBFEFF3088005
:101AC000EFF3098000B5FFF7F3FE00BD04ED00E081
:101AD000042838B504460D4613D0052813D0032832
:101AE00013D10C48FFF7F8F908F026FFAA69014660
:101AF0000948FFF7F1F929462046BDE8384000F0D3
:101B000017B80648EEE70648ECE701460548FFF738
:101B1000E3F9E9E796B5000014B60000BCB5000093
:101B2000D6B50000F1B5000001460068FFF7D0BF50
:101B3000052810B50CD009F0ADF860B109F0AAF88D
:101B40000C490D4B002808BF19460C48FFF7C4F993
:101B5000FFF7A4FFFCE709F0ADF80028EED1084C30
:101B60000848A168FFF7B8F9A068BDE8104000F088
:101B70000BB800BF50B6000054B6000065B60000B8
:101B8000940F002085B6000038B505464FF02003BD
:101B9000EFF3118483F3118809F0E4F80B4B9B6891
:101BA000AB420DD10A4B5A68C2F3080222B908F0C1
:101BB00049FE2046FFF742FD5A6842F080525A60C3
:101BC0002046BDE8384008F0F7BC00BF940F002065
:101BD00000ED00E000B572B60B4AD06900281EBFC8
:101BE0000021D16108F0D0F962B6EFF30580A0F1D1
:101BF00010004FEAC0000549014409C998475DF843
:101C000004EBFFF7FBBC0000940F00200001000074
:101C1000202080F3118806484FF40061401880F3BB
:101C20000988022080F31488BFF36F8F00F006B894
:101C3000481D002030BFFFF7FDBF00BF08B5074BB0
:101C4000074A23F07F039360BFF34F8FBFF36F8F7B
:101C500008F0CAF908F0D2F908F0F4F90000000021
:101C600000ED00E008B5FFF7E5FFBDE80840FFF72D
:101C7000C5BC0000124930B50D68082D0DD8114AB9
:101C80004868002353609D4200F10C0007D10523F2
:101C90005360BFF34F8FBFF36F8F002030BD50F8FC
:101CA0000C1C50F8044C936021F01F0141F010010E
:101CB000194344F00104D16001331461E3E700BF2C
:101CC0004829002090ED00E00139034611F8012F6A
:101CD0000AB91A70704703F8012BF7E70138013988
:101CE00010F8013F11F8012F934202D1002BF7D1D8
:101CF0001A46981A704710B55AB10139841810F86D
:101D0000012B11F8013FA04201D09A42F7D0D01A1E
:101D100010BD1046FCE7F0B581EA0004A5070346B4
:101D20000BD0013B0A4491421DD1F0BD002AFCD0EA
:101D300011F8014B03F8014B013A9C07F6D11D1F26
:101D40000C468F183E1B032E08D894086FF003052D
:101D500005FB0422A40023442144E2E754F8046B69
:101D600045F8046FEEE711F8014B03F8014FDAE78D
:101D7000F0B5C9B203469C070FD141EA012444EAF9
:101D800004441D469F187E1B032E0CD8940803EBB9
:101D9000840413449C4209D1F0BD002AFCD003F80E
:101DA000011B013AE7E745F8044BECE704F8011B97
:101DB000F0E7BFF35B8F50E8003F43EA010240E8E1
:101DC000002CBCF1000FF6D1BFF35B8F18467047B3
:101DD000BFF35B8F50E8003F03EA010240E8002CAC
:101DE000BCF1000FF6D1BFF35B8F184670470000BF
:101DF00070B5064688790D4607F072F90E4B83429E
:101E000019D1284607F072F9284607F06FF90B4CF4
:101E100004EBC000436873B1284607F067F904F883
:101E20003060284607F062F904EBC000BDE870405E
:101E3000406808F090BD70BD842C00201400002084
:101E4000054BBFF35B8F1B6FBFF35B8F43FA00F053
:101E500000F00100704700BF782900202DE9F0470D
:101E6000804689461348144D4FF0FF3107F0CCF9F6
:101E7000044600F1080600213046002707F0CAF9A1
:101E80002775204607F032F905EBC000A0F8028064
:101E9000204607F02BF905EBC000032147603046D0
:101EA00007F0FCF980F80290A0F800802046BDE819
:101EB000F08700BF842C00201400002070B5154668
:101EC00086B00C4619B9FFF7C9FF044668B3012272
:101ED0000021684608F036FD204607F007F9144E49
:101EE00006EBC000C0F804D0204607F0D3F9214625
:101EF000104807F093F942F21071684608F052FD5D
:101F0000204607F0F3F816F8300030B1204607F00D
:101F100093F96FF0040006B070BD0DB12C60FAE7C4
:101F2000204607F089F92846F5E76FF03600F2E71A
:101F3000140000201C2A002038B50221054642F278
:101F40000C00FFF78BFF044628B30221083007F08E
:101F5000A5F9012D024615D10B20FFF771FF507036
:101F600015702146002242F20C00FFF7A7FF04463D
:101F700030B9012D09D14FF480710848FFF719FFDE
:101F8000204638BD00234370EAE76FF480710348B0
:101F9000FFF71EFFF4E76FF03604F1E7E8290020B1
:101FA00070B5154D062205F108010646FFF7A3FEA0
:101FB0000446D8B1062142F20500FFF74FFF044660
:101FC000B0B106223146083007F06EF921460022F2
:101FD00042F20500FFF772FF044638B90622314687
:101FE00005F10800FFF797FE0123EB71204670BD55
:101FF0006FF03604FAE700BF7829002008B5092001
:10200000FFF71EFF024640B90820FFF719FF20B175
:102010001046BDE80840FFF78FBF002008BD012330
:1020200010B50621044600F8013B01F043FB18B946
:10203000A37963F03F03A37110BD000038B50C4DC8
:102040002B78012B10D1AB7903F0C003C02B0BD13F
:10205000681CFFF7A5FF044620B9042105F17000B4
:10206000FFF7A7FE204638BD6FF01504FAE700BF62
:1020700078290020F0B5BC4DD5F8B430996811F03E
:10208000010187B023D104AA40F60340FFF716FFF1
:10209000044600287CD1049B9B681B78A3B9B34AF3
:1020A00013602B46BFF35B8F53F8702FBFF35B8F2A
:1020B00002F00D02BFF35B8F53E8001F43E80020DE
:1020C0000028F9D1BFF35B8F049807F0B5F804AA94
:1020D000002141F20300FFF7F1FE0446002857D12A
:1020E000049BA348996808220131FFF714FE049865
:1020F00007F0A2F8214604AA41F20100FFF7DEFE34
:102100000446002844D1049883685A78AA73D97881
:102110009A7842EA01222A821A79EA73197ADA79DC
:1021200042EA01226A825A799B7942EA0323AB820E
:1021300007F082F80320FFF783FE014688B904AA5E
:1021400041F20900FFF7BAFE044608BB049B894828
:10215000996806220131FFF7DEFD04982C7007F024
:102160006BF804AA002141F20200FFF7A7FE044623
:1021700070B9049B8048996840220131FFF7CBFD7C
:10218000049807F059F8AB7E580604D46FF0120497
:10219000204607B0F0BD214604AA42F20300FFF733
:1021A0008DFE04460028F3D1049B744899680822E8
:1021B0000131FFF7B0FD049807F03EF8AB7E9906B9
:1021C00040F1908095F83A301A0700F1A780082175
:1021D00042F20100FFF742FE0446002800F0898029
:1021E0000821084407F05AF895F8403003F0060338
:1021F000062B14BF02234FF4C173002203701B0A85
:1022000043708270C270027142718271C271214644
:1022100042F20100FFF752FE04460028B8D108211F
:1022200040F60140FFF71AFE0646002861D008215B
:10223000084407F033F880234370022720230470FA
:102240008470047144718471C770C3712246314631
:1022500040F60140FFF732FE0446002898D10146BF
:1022600004AA4FF60140FFF729FE20BB049806F0B0
:10227000E3FF04AA21464FF60240FFF71FFED0B944
:10228000049B3F4899683A460131FFF744FD0498A2
:1022900006F0D2FF04AA21464FF60340FFF70EFED8
:1022A00048B9049B3748996801221144FFF733FD70
:1022B000049806F0C1FF0023072202A92A480293CE
:1022C000CDF80B30FFF717FD00283BD195F86030B3
:1022D000DB075BD42448FFF7A2FE044600287FF406
:1022E00057AF69E0022140F66D40FFF7B7FD0646A3
:1022F00010B96FF036044BE70221083006F0CEFF2C
:102300000123447003702246314640F66D40FFF7CA
:10231000D5FD044600283FF455AF39E704AA002153
:1023200042F21C00FFF7CAFD044600287FF430AFDC
:102330000498836853F8012F5B68C5E9202306F0F1
:102340007BFF44E7104B18689A8804909B79ADF89E
:10235000142004A9072204488DF81630FFF7CBFC9F
:102360000028B3D014E700BF7829002070000020B7
:102370008E2900207929002096290020F0290020AC
:10238000D7290020D6290020B8B1000001AA0021D9
:102390004FF60940FFF792FD00289BD10198816814
:1023A0004B786BB101230622023107482B70FFF7EF
:1023B000B2FC019806F040FFFFF740FE0446E7E656
:1023C00006F03AFF86E700BF7929002010B5FFF735
:1023D00051FE044630B902210648FFF7EAFC2046C8
:1023E000FFF70CFE044B1B681BB12046BDE81040F4
:1023F000184710BDE82900206C0000202DE9F04F9F
:10240000067D012E85B0044640F0988087683B78B1
:102410000E3B012B05D8404080F311884FF004009B
:1024200002DF00F1080318460221019306F045FF80
:102430003B783E2B61D1A7680198314606F03DFFFD
:102440003B78082B44D0092B67D0022B55D101983B
:102450003D4F06F03AFF804608F1FF385FFA88F8F2
:10246000B8F1FF0F49D0A6680198092106F025FFB1
:10247000337A3344711C93F809B07378023B012B13
:102480004FF0070202A856D8FFF745FC9DF8083028
:10249000023B8DF808303B68A3B1019806F01DFFA0
:1024A000337AB4F80CA0A3818146019B32783D6851
:1024B0004FFA8BF102A8A8472369A4F80CA013FADD
:1024C00089F3A360317A0198013106F0F6FEC3E783
:1024D000A6681E486FF02001FFF77AFC337843B9F5
:1024E000711C40221A48FFF716FC10211748FFF70D
:1024F00060FC184B1D68771C35B9204606F09CFE21
:10250000002005B0BDE8F08F32782B68002A0CBFA0
:102510003846002098476D68EEE70F4D2A68002A7C
:10252000EBD0A068037823B90130904700232B60DB
:10253000E3E70020F9E7FFF7EEFBACE706F07CFEEF
:102540006FF01500DDE700BF70000020E8290020D3
:10255000280000206800002024000020F8B5037D3A
:102560008668012B044605D0404080F311884FF067
:10257000040002DF8389012BF6D933780E3B012B4F
:10258000F2D800F108050221284606F096FE3378BD
:102590000E2B05D00F2B17D0204606F04DFEE3E79B
:1025A000A368032128461E7806F087FEA36821460B
:1025B0001878FFF71DFC16B10A4808F0CCF9204640
:1025C00006F03AFE0020F8BDA66804217778284678
:1025D00006F073FE21463078FFF70AFC002FEED09C
:1025E000EAE700BF002A0020084AD2F8B4303BB91D
:1025F000C16841B1016931B1C2F8B40018467047F1
:102600006FF0440070476FF0150070477829002084
:1026100038B50546054806F0F7FD044620B100210F
:10262000083006F0F7FD2575204638BDA42C0020A3
:1026300010B501464FF02003EFF3118083F31188AA
:102640000B4A0023D2F8A040C2F8A03080F31188D2
:1026500024B90120BDE81040FFF7DABF012204F1E0
:1026600008002275A381194606F0D4FD204610BD4E
:1026700078290020F7B51860C31D23F003030E4628
:102680001A80013A94B205460422002106FB040098
:10269000FFF76EFB4FF6FF77013CA4B2BC4201D1BD
:1026A00003B0F0BD04FB06602B180422801B0DEB69
:1026B000020128440193FFF72EFBEDE773B5046890
:1026C00006468CB1E31D23F00303042221460DEBE3
:1026D00002001D88FFF71FFB019B23B1DA1D22F0CA
:1026E0000302013D15803360204602B070BD70B515
:1026F0000C6806460D461CB1E31D23F003031C883D
:10270000042229463046FFF706FBF21D22F00302A1
:10271000631C13802E6070BD02FB01007047401ADD
:1027200080B2B0FBF2F0704710B5114401384FF69B
:10273000FF73013A92B29A4200D110BD11F8014DD7
:1027400000F8014FF5E710600860704710B5146895
:10275000206014686160106010BD884203D01AB117
:10276000436813607047002070470B68834207D0AE
:102770000AB1586810600BB11A680A6018467047B1
:102780000023FBE72DE9F047114FDFF848900426BE
:10279000013EF6B2FF2E19D033B24FEA830803EBA5
:1027A00043031D0104244FF00C0A0AE01AFB0451F4
:1027B0000A1D04EB08003A44394409EBC000FFF756
:1027C000C2FF013CE4B2FF2CF0D1E1E7BDE8F087A5
:1027D000F400002074000020F0B4124B05460F46B0
:1027E0000C26302472B1614306FB00142344597A4D
:1027F000187A814204BF0131197228463946F0BC6B
:1028000006F0DABB4C4306FB004423449C7ADA7A98
:10281000A24204D101329A72F0BC06F0FBBBF0BCBC
:10282000704700BFF4000020F8B505460E461C4670
:102830008AB1012362782078801A10F0030729D02A
:1028400003B3012F39D00132D2B22270314628466B
:1028500006F0E0FB1CE006F0CBFB0028E9D0314697
:10286000284606F0B7FB0028E3D030230C22734340
:1028700002FB0533124A1A44937AD27A9B1A18BF84
:102880000123D7E70232D2B22270D4E9020398477B
:102890000020F8BD002BF8D00132D2B22270042300
:1028A000302212FB06320C2313FB0523044A606816
:1028B0001A442146FFF74AFFC8E73846E9E700BF58
:1028C000F40000202DE9F04F00EB400389B01B011C
:1028D0004FF00008434E049305460424CDF80480CD
:1028E000013CE4B2FF2C0BD1019B002B72D0B8F15C
:1028F000000F6FD142462946284606F05DFB69E08D
:102900000DF1200B00230C274BF8043D4FF030094C
:1029100007FB04F309FB053031185A464968305863
:102920000293FFF71AFF049B17FB0437F319824643
:102930000393BAF1000F32D0079B1F785A78BF1A61
:1029400007F00307012F04D1013A5A70D3E90202BC
:102950009047079A13785278DBB29A1A02F0030272
:10296000012A05930DD0029B039909FB05303044E1
:1029700000224068FFF7F9FE079A059BC2F804A001
:102980005370029B09FB0533F1185A464968F05809
:10299000FFF7E3FE012F8246CBD1BCB9B0B930229C
:1029A0000C236A4303FB04223244917AD07A884292
:1029B00013D130226A4303FB042333441A7A597A31
:1029C00091421CBF5A724FF0010889E729462846F8
:1029D00006F020FB09B0BDE8F08FD1720122019210
:1029E000E7E700BFF400002010B5421E00200139C7
:1029F000C9B2FF2900D110BD12F8013F002BF6D05B
:102A00005C1E01302340C0B2F8E7F0B5427F046895
:102A1000064613460020FF2A01D10020F0BD02EB3C
:102A2000820504EBC5078A42D7F808C014F8355070
:102A3000604402D013462A46EDE7934200D17577F1
:102A40001BB203EB830304F833503B78FF2BE5D034
:102A500003EB830304EBC304A3686344A360DDE7D3
:102A600030B5551A15F4000F8368446909D125F073
:102A70007F421A44A2420ED9121B00248260446194
:102A800030BD8A1A22F07F42934201D99A1AF1E7A7
:102A90002244D41A0022A41A0022EFE7034600229F
:102AA0001A709A6A596208460AB1D96A1047704783
:102AB0002DE9F047857F01230446C3771DB9437F85
:102AC000FF2B02D1C577BDE8F08705F015FE6769D9
:102AD000667FD4F80080C71B27F07F47FF2E06D003
:102AE00006EB860608EBC6018B689F4218D2A27AD5
:102AF000E37A934205D10133DBB2022B08BF0023F6
:102B0000E372E37A04EB83030122DD60656A00234C
:102B1000E377AC46234604210320BDE8F047604735
:102B2000FF1A1D448A784B7818F836609B1ADBB27E
:102B3000012BD3D1D1F80C90013A8A70B9F1000F72
:102B4000CCD048696369CA8B281A184420F07F40AA
:102B50000B69496AC847C1E72DE9F04FC27F93B0BE
:102B60008346002A40F0A883436904930121837AB5
:102B70008177C07A984200F08C800B44DBB2022B44
:102B800008BF00238BF80A300BEB83030191D3F8C5
:102B90000C80049B434423F07F43CBF814309BF814
:102BA0001D300393DBF800300593DBF804300B9302
:102BB0009BF809300293002307934FF0FF0A029B12
:102BC000013BDBB2FF2B029366D19BF81D30039AC9
:102BD0009B1A18BF01230293019BCBB1DBF8009035
:102BE00000279BF81D50FF2D0BD02EB206EB86065A
:102BF00009EBC604A368434540F23281A3EB080306
:102C0000A360DDE901230399A94218BF134602938B
:102C1000DBF800300893DBF8043010939BF80930A0
:102C20000193019B013BDBB2FF2B019340F06881D4
:102C30009BF81D30039A9342079B40F032834BB9B7
:102C4000DBF804309BF809400193013CE4B2FF2C0F
:102C500040F09C8200238BF81E30029B4BB19BF806
:102C60001D30FF2B40F0E18205F02EFD08B9CBF8B6
:102C700018009BF81F30002B00F01E83DBF8244067
:102C80005B46012203210420A44613B0BDE8F04FA7
:102C900060470192904682E70B9B029A03EBC207C2
:102CA0007B680693F978BE788E4288D0069B387888
:102CB00006EB460212019D18731CDBB2984208BF56
:102CC0000023BB70069B9A5C032AECD9697801EB60
:102CD00081030A930A98059B03EBC004052A6378D5
:102CE000A078A3EB0003DBB20AD84BB1042A0CD1C5
:102CF0006A6852B9AA6842B9EA6832F07F4204D1E0
:102D000001212846FFF7CAFECCE7012B40F09D8049
:102D10005846FFF77AFE2B78A060042B064640F059
:102D20008680DBF81430089305F0E6FC089B0990D8
:102D3000C31A23F07F4343449E4202469EBF62690A
:102D4000921B9B18626896BF6361F31A0023002AE6
:102D500049D0A989002946D001F1FF3C1FFA8CFC1B
:102D6000A5F80CC09A42B4F81EE001D2F44502D393
:102D7000DFF8749231E0616A994E9A488E19864262
:102D800081BF01F1E87101F5D43101F5A5716162EE
:102D9000D4E908168CBF4FF001094FF00009761AEC
:102DA00091440EF1FF3E6662A3EB0903A4F81EE016
:102DB000D8E7D4E908160E4489498A487118814237
:102DC0008EBF002101214E4411440EF1010E8CBF33
:102DD000666266620B44A4F81EE0B4F81EE0F44597
:102DE000E7D8A4F81CC0AA881344A360EA886369E2
:102DF00013446361DDE908122046FFF731FEA26942
:102E00002B8913446A89A36193428CBF9B1A0023C8
:102E1000A361AB7B03B1E370059B0A9A03F832A070
:102E2000637895F801A001336370002169E7A37806
:102E300063706B789BF81C209A4201BFFF238BF8CC
:102E40001C300023CBF81830EFE704215B46DBF899
:102E5000244001220846A0470123BE700793AEE636
:102E6000DBF818209342A8EB03081F4429BFFF2377
:102E7000D31A8BF81C300023CBF81830A3691BB190
:102E80008BF81C50CBF818300022A26019F83630AD
:102E90008BF81D30D4F804C0BCF1000F2CD0A08BEF
:102EA000DFF840E1D4E908130B444D495918714546
:102EB0009FBFA3F1E873A3F5D433A3F5A5736362B1
:102EC00092BF019B63620023634410F1FF301A44F8
:102ED000E8D2049BA260DBF81410DA192046FFF751
:102EE000BFFDA38BE3830023E37009F836A063786A
:102EF00001336370AA4674E6A37863705546F9E718
:102F0000109B019A03EBC20304935B680A93049B32
:102F100093F80190BAF1FF0F40D00FFA8AF303EB58
:102F20008303089AD04612F833A002EBC3040025AD
:102F3000DBF800300B93FF232370A28BE38B9342CB
:102F400040F280809B1A9BB20C930FFA88F303EB3C
:102F50008303DB001193C8E009EB49030A9A1B01C4
:102F6000D51809F101025FFA82F9049A12784A45EC
:102F700008BF4FF000090A9AD35C032B0ED195F8D5
:102F80000180089B08EB880403EBC4046278A378F3
:102F90009A4208D001212846FFF780FD049B9B78C8
:102FA0004B45D9D13DE6EB68DBF8141063602B6923
:102FB0002362AB8AA383AB69A361EB69E3602B6AED
:102FC00023610026AB68A36066616A682046FFF74C
:102FD00047FD01236662E683E3704FF0FF0AA7E72F
:102FE0005A2B17FF592B177FB6562EFE6068002804
:102FF00000F0C780D4E90812B14B0A44B149D31894
:103000008B429CBFA2F1E872A2F5D432A3688BBFB9
:103010006262A2F5A57200226262034498BF012297
:103020001344E28BA3600132E283626993424FF062
:10303000000189BF9B1AD31AA36061619CBF6361C1
:10304000A16052E000237FE7B669091A46B9059FDF
:10305000B84200D23E1A0993059612F83E3053E06A
:103060000693F8E730B200EB800002EBC0070E9742
:10307000BF680F97774509D20E9FBF69002F54D1C3
:103080000F9EAEEB060E12F830604CE0FF264CE0CF
:10309000069B98456AD0069BFF2BA7D01E4633B2ED
:1030A00003EB83030593059A0B9B03EBC207FB8B92
:1030B000BA8B934288BF9B1A7A688CBF9BB200235D
:1030C000002A93D00C9A934290D8FA78E3789A42E7
:1030D0008CD231465846FFF798FCBB787B70059A36
:1030E0000B9BB86003F832A0B246119BDBF80020BE
:1030F000DBF81800059002EB030CFF209BF81D3055
:10310000DCF8081009930690FF2B06D003EB830E22
:1031100002EBCE06B068814296D8DCF818000D901C
:1031200001EB000E1E46FF2E9CD10D9828B105988C
:103130008142ADD3FF2E40F0BB800998CCF8081037
:10314000834218BFBDF924008CF8003016BF00EB95
:1031500080008BF81D8002F83080FF2B06D003EB37
:10316000830302EBC3039A68511A9960A378013371
:1031700063700021002D3FF4CDAE2846FFF78EFC92
:10318000C8E60121F6E70123029359E5019B03EB11
:10319000C4056E686B78EA789A423FF456AD03EB4B
:1031A00043031A01B318B25C012A24D0022A29D1A0
:1031B000D3E9019099F80020D3F80CE0DBF800C0C7
:1031C000DBF81410FF2A02D00768B94223D09BF81D
:1031D0001D2001600021FF2A09D002EB82080CEBC0
:1031E000C80ADAF808000144DAF81800D0B189F802
:1031F0000020CEF8001000225A629A6A12B1D96AF1
:10320000002090476B782A780133DBB29A4208BFDE
:1032100000236B70BEE702EB8202DEF800101CF8A0
:103220003220D8E71CF83820D5E7039BFF2B07D1C5
:1032300005F062FA044605F039FA08B9CBF81440F3
:103240009BF81D30DBF8002003EB830302EBC30384
:103250000A269D6805F050FADBF81440031B23F0A2
:103260007F430333AB422CBFE418641924F07F443E
:103270000746DBF828302046984705F03DFAC01B8A
:1032800020F07F40E41B033024F07F44A0427FF60F
:10329000F0AC013EDED1404080F311884FF00400D5
:1032A00002DF002B3FF46FAF00238BF81E30D6E413
:1032B000B0457FF4F4AE59E713B0BDE8F08F00BF1E
:1032C0005A2B17FF592B177FF0B51C4E059F9DF801
:1032D0001840DDF81CC02C25454306EB050E725145
:1032E0008EF808108EF80930CEF80470013BDBB27E
:1032F000FF2B13D104BB2C2358433318089A1A62AE
:10330000099A5A6218300A9A9A6232184FF6FF7177
:103310003450918020465C615C81F0BD1AB207EBAD
:10332000C201C1F804C017F8322002EB4201A41A0E
:103330000CEB011CE4B2D9E70120EEE7B401002058
:10334000044A2C2303FB0020007A003018BF012020
:10335000704700BFB4010020074A2C2100FB012365
:1033600010B45C6A2CB1A44601220321022010BCD7
:10337000604710BC704700BFB40100202DE9F04148
:10338000224C2C2700FB07480DB2D8F8040000EBB4
:10339000C50C10F835009CF80340661CF6B2B0422C
:1033A00098BF00269CF80100B0422DD0DCF8040044
:1033B00004EB4404250144194FF0030E00F805E026
:1033C0006360069BA360079BE360089B23610A9BE5
:1033D000A361BDF82430A3820B9BE3610C9B2362A5
:1033E000022363620D9BA3620E9B6270E3628CF802
:1033F0000360D8E90835084698474346002204216F
:10340000A847606ABDE8F0810120FBE7B401002015
:103410002DE9F843224C2C2700FB07490DB2D9F8BF
:10342000040000EBC50C10F835009CF80340661C46
:10343000F6B2B04298BF00269CF80100B0422DD0F1
:10344000DCF8040004EB4404250144194FF004089F
:1034500000F80580A380BDF82030E380BDF824305B
:103460002381BDF828306381BDF82C30A3819DF8FD
:103470003030A373022363620D9BA3620E9B6270C4
:10348000E3628CF80360D9E90835084698474B4653
:1034900000224146A847606ABDE8F8830120FBE7A7
:1034A000B40100202DE9F0411A4C2C2600FB0648FF
:1034B0000FB2D8F8040000EBC70C10F837009CF8E6
:1034C0000340651CEDB2A84298BF00259CF801009E
:1034D000A8421CD0DCF8040004EB440424010719C2
:1034E0004FF0050E00F804E07A700222C7E90923C4
:1034F000069BFB628CF80350D8E9083408469847CD
:10350000434600220421A047786ABDE8F0810120EB
:10351000FBE700BFB40100202DE9F0411C4C2C2733
:1035200000FB07480DB2D8F8040000EBC50C10F8FA
:1035300035009CF80340661CF6B2B04298BF0026E6
:103540009CF80100B04221D0DCF804E004EB440414
:1035500025010EEB050402200EF80500C4E9012345
:10356000069BE360079BA362FF25089B6570606272
:10357000E3628CF80360D8E908350846984743466B
:1035800000220421A847606ABDE8F0810120FBE722
:10359000B40100202DE9F0411A4C2C2600FB06480E
:1035A0000FB2D8F8040000EBC70C10F837009CF8F5
:1035B0000340651CEDB2A84298BF00259CF80100AD
:1035C000A8421CD0DCF8040004EB440424010719D1
:1035D0004FF0010E00F804E0FF2078700220C7E9E8
:1035E0000902FB628CF80350D8E908340846984772
:1035F000434600220421A047786ABDE8F0810120FB
:10360000FBE700BFB40100202DE9F041084C2C2558
:1036100005FB0043D3E9083706460846984706FBF2
:103620000543BC4600220421BDE8F041604700BFCD
:10363000B401002005F060B8401A20F07F407047C8
:1036400008B50346012B08460ED833B119B106223E
:103650000649FEF760FB054807E019B10622044958
:10366000FEF759FB024800E0002008BD12020020CE
:103670000C02002070B506460D4604F0ABF9044676
:1036800010B10C24204670BD04F0B8F910F0060FFC
:10369000F7D1062229461EB10248FEF73CFBF1E7AE
:1036A0000148FAE7120200200C02002000230370F8
:1036B0000B70704773B50C464618351B8CB1FDF77F
:1036C00019FD032C019007D904220DEB02012846B5
:1036D000FEF721FB043CF0E7224601A92846FEF74D
:1036E0001AFB002002B070BD08B50248FEF77CFF4F
:1036F000002008BDCCB60000838910B504469BB1FC
:10370000037D8BB900F082F930B183681B780E3BE2
:10371000012B06D8FEF722FF204605F08DFD002084
:1037200010BDFEF76BFEF7E76FF01500F8E700003D
:1037300073B51C4D00264FF0FF31284606F03EFEC3
:10374000044618B300F032FD0228019421D8012864
:103750000EBF00214FF0FF310120FEF759FF044654
:1037600018B10146019800F039FC019B0021D8886E
:1037700004F00AFA02A850F8043D1E6004F0A4F90F
:1037800024B1A389204653B1FEF738FE07F078F83C
:10379000D1E7404080F311884FF0040002DF05F0CC
:1037A0004BFDF3E7742C002037B50C4C0C4D0DF19C
:1037B000020101A804F050F90028F8D1019B33B1AF
:1037C00004F096FB0199284606F0D4FDEFE74FF090
:1037D000FF31204607F0E6F8E9E700BF5C2C002047
:1037E000742C002010B5144886B004F025FC044663
:1037F000F8B900F0FBFC6FF00903CDE902434FF488
:10380000E0720E4B0E490F48CDE90444CDE9004467
:1038100007F08AFA6FF00703CDE90243CDE90444CB
:10382000CDE90044084B094909484FF4806207F08C
:103830007BFA204606B010BD5C2C0020A9370000A2
:1038400048120020200F002031370000081400200B
:10385000B00E0020C0F307230870000C8870000A27
:103860004B70C870704738B508300D4602211446B9
:1038700005F014FD0570447038BD000038B50446ED
:103880004FF0FF300D46FEF7D3FEEA1C2060D2B2A7
:103890000E21FFF7E8FF20680321083005F0FEFC49
:1038A00001230370054B1B88A0F8013020682946CE
:1038B0000830BDE8384005F0F1BC00BF1802002018
:1038C00070B50446154601320E460834D2B23E2188
:1038D000FFF7C9FF0121204605F0E0FC06702946EC
:1038E0002046BDE8704005F0D9BC00002DE97848BD
:1038F00004461846154B1646D3E900234FF0000B3B
:1039000003F0005C5BEA0C030D461DD0104BD3E9BD
:1039100000234FF0000C02F0080B5BEA0C0313D0FD
:103920000B220421FFF7CCFF08220470A0F80160ED
:10393000033024B9291DBDE87848FEF7ECB9002111
:10394000BDE87848FEF714BABDE87888302A002030
:10395000382A002070B503788AB004460E4607ADB9
:10396000032B20D8DFE803F002191B1D114928465C
:10397000FEF7AAF962780492A2780392E2780292A2
:103980002279019262790092A37905950A4A1B2156
:103990003046FDF7AFFA0AB070BD0849E7E70849BD
:1039A000E5E70849E3E7084A0A212846FDF7A2FAB5
:1039B000E0E700BFEBB6000014B70000F2B600006D
:1039C000F9B6000003B700000DB7000010B583780A
:1039D0009A068AB013D0C378DB0710D501460AAC2B
:1039E00011F8043BC3F3801304F8243D06220DF1C3
:1039F0000500FEF790F903A92046FFF7ABFF0AB0D8
:103A000010BD03460068596870470000F0B5818911
:103A100099B00025022904460D9502D8002019B05E
:103A2000F0BD8368C54E1A7858789B7842EA002228
:103A30008B423280F2D8032104F1080005F03DFCEE
:103A40003388C3F309029B0A042B63D007D8032BE6
:103A500024D001210DA8FFF711FF0123CCE1082B91
:103A600000F0D9803F2BF4D1013A092AF1D801A303
:103A700053F822F0FD3D00002B3E0000533E0000B5
:103A8000533A0000533A0000973E0000533A0000BA
:103A9000693E0000A13E00000D3F0000032A14D043
:103AA00008D8012AD5D1A068FFF7ABFFA44BC3E922
:103AB000000103E02D2A17D0632ACAD101210DA8E5
:103AC000FFF7DCFE05700D98A9E79D4B4FF0FF3026
:103AD00041F6FF71C3E900019A4B1F200021C3E9A1
:103AE000000103F01DFFE9E7A36804210DA81D886C
:103AF0009F78FFF7C3FEAEB20446C21C394630467B
:103B000003F0A0FF002814BF022300232370A4F8B1
:103B10000150D8E7013A082A9BD801A353F822F0B4
:103B2000453B00006F3B0000E33B0000533A0000C0
:103B3000533A0000533A0000533A0000533A000051
:103B4000FF3B000009210DA8FFF798FE002303703A
:103B50008370C3706FF00E034371052309228371D4
:103B60004FF0FF3342700271C3710372ABE7412122
:103B70000DA8FFF783FE00210446402200F8011B38
:103B8000FEF7F6F8E378217FA27E63F07F03E3700F
:103B9000A37963F03F03A371E37A43F00403E37274
:103BA000E37B43F02803E373237C43F00203237495
:103BB000E37D43F00403E375E37E61F03C0163F0D1
:103BC0003C032177E376617F94F8273041F00801C8
:103BD00062F0080263F07F036177A27684F82730F1
:103BE00071E709210DA8FFF749FE002104460822CC
:103BF00000F8011BFEF7BCF86023637163E707213F
:103C00000DA8FFF73BFE0146002301F8013B1846D3
:103C1000FFF716FD57E70A2A00F0E18027D8052AAA
:103C200000F0818012D8022A5FD0032A69D0012ACD
:103C30007FF40FAFA068FFF7E4FE424BC3E9000139
:103C400001210DA8FFF71AFE0023D5E0072A00F096
:103C50005581C0F0A680082A00F0BB80092A7FF4B5
:103C6000F8AEA368591C187804F0BEFBE8E7122AE6
:103C700077D010D8102A67D06FD80F2A7FF4E9AE1A
:103C800002210DA8FFF7FAFD00230370044604F09B
:103C90005DFC607017E7182A67D015D8172A7FF4E3
:103CA000D8AEA06800230EAA00F1100104F05EFD5A
:103CB00011210DA8FFF7E2FD002300F8013B1022BF
:103CC0000EA9FEF728F8FEE61C2A59D04B2A7FF4ED
:103CD000C0AE03210DA8FFF7D1FD0146002301F876
:103CE000023B0130FFF7E2FCEDE604210DA8FFF7EF
:103CF000C5FD002303701B22837002234270C37032
:103D0000E1E609210DA8FFF7B9FD002104460822CC
:103D100000F8011BFEF72CF80C2363704023A370FE
:103D20000123E370CFE6A1680120FFF7A3FC04465E
:103D300001210DA8FFF7A2FD0470C4E618020020BF
:103D4000302A0020382A002001210DA8FFF796FD17
:103D5000044604F0FDFB2070B5E6A06804F00EFCFC
:103D6000E5E7A06804F042FCE1E709210DA8FFF7B0
:103D700085FD002300F8013B0821FFF79BFCA2E62C
:103D800009210DA8FFF77AFD01460022044601F83B
:103D9000012B0320FFF75EFD611D1046FFF75AFD62
:103DA00091E6A068002103790288CDE90911CDE9E7
:103DB0000711CDE90511847B0494447B0394C41D51
:103DC00002948479019440790090084604F0C2F985
:103DD000ADE7A368591C187804F0AEFA30E7A36881
:103DE000187804F047FB012104460DA8FFF746FDB3
:103DF000002C14BF0C230023037064E60D210DA8D2
:103E0000FFF73CFD02224270C270012282710C2237
:103E10000023C271632203708370037143710372C4
:103E200042728372C37203734DE641210DA8FFF7FE
:103E300025FD00210446402200F8011BFDF798FFF4
:103E4000637863F058036370A37843F00303A370AF
:103E500039E609210DA8FFF711FD002100F8011B2B
:103E60000822FDF785FF2EE65B4B0EAA03F128061C
:103E7000154618685968144603C40833B3422246ED
:103E8000F7D129210DA8FFF7F9FC002300F8013B29
:103E90002822294615E7A1680020FFF7EBFBCFE6B3
:103EA0004FF08053D3F8A420013206D1D3F8A830C4
:103EB0004FF6FF729BB2934220D04FF08055D5F859
:103EC000A030DB071AD518210DA8FFF7D7FC002674
:103ED0000123044643700670D5F8A400A11CFFF727
:103EE000B9FCD5F8A830A371C3F3072363F03F03EF
:103EF000E3711022314604F10800B2E702210DA857
:103F0000FFF7BCFC002303704370DCE521210DA802
:103F1000FFF7B4FC0346002203F8012B4FF0805258
:103F20000446D2F8901001314BD0D2F894100131F0
:103F300047D0D2F89810013143D0D2F89C1001310B
:103F40003FD0D2F890001946FFF784FC611DD2F8EB
:103F50009400FFF77FFC04F10901D2F89800FFF705
:103F600079FC04F10D01D2F89C00FFF773FC4FF0CF
:103F7000805204F11103D2F88010013127D0D2F819
:103F80008410013123D0D2F8881001311FD0D2F82B
:103F90008C1001311BD0D2F880001946FFF75AFC73
:103FA00004F11501D2F88400FFF754FC04F1190163
:103FB000D2F88800FFF74EFC04F11D01D2F88C0006
:103FC000ECE6102200211846FDF7D2FECFE71022C2
:103FD0000021184645E700BF37B700002DE9F04142
:103FE0000379012B8AB004460D4600F1080800F061
:103FF0009B80023B032B00F2CD80DFE803F00253ED
:10400000535F674B03934FF60473ADF810300223F0
:104010008DF81230634BD3E90023002003F00051E8
:1040200050EA01033BD0604BD3E90023002102F0AA
:10403000020050EA010332D0227A637A02F00F02C2
:10404000012A1ABF9E1FF6B20026234406F10B0276
:10405000D2B2022128469F7AFFF732FC0123037077
:10406000237A0AAA03F00F031344054613F81C3CF5
:104070004370237AC3F380138370062204F10A018C
:104080000330FDF748FE0A3505F8016C7F427FB228
:10409000324608F108012846FDF73DFEAF550AB04B
:1040A000BDE8F081037A03F00F03072BF7D1437AC1
:1040B000002BF4D04046FFF789FCF0E7394BD3E9F9
:1040C000002300F10A0603F00051002050EA01032A
:1040D00008D0354BD3E90023002102F4802050EAB8
:1040E000010310D1237A0AACC3F3801304F8243DF2
:1040F000314606220DF10500FDF70DFE03A920460D
:10410000FFF728FCCBE7082213212846FFF7D8FB4E
:1041100000230370237AC3F38013437006223146D1
:104120000230FDF7F8FDBAE7C17AC68809290BD03D
:104130000C2910D007292DD1037B0E2BAFD12B4694
:10414000324600211A2003E02B4632464146002029
:10415000FFF7CCFBA3E7134BD3E900234FF0000894
:1041600002F4006757EA080399D008222846FFF7AF
:104170007AFB0821681805F091F800230370A0F875
:104180000160237BC370B4F80D308380B4F80F3026
:10419000C38084E7404080F311884FF0040002DFC1
:1041A000000103FF302A0020382A00200379012B68
:1041B0000FD00A2B15D8012000FA03F313F4B06FC7
:1041C00012D113F03C0F10D183F0400343F3801061
:1041D0007047037A03F00303032B0CBF0220032074
:1041E00070474FF0FF30704702207047064B4FF08A
:1041F000FF3041F6FF71C3E90001044B1F2000218D
:10420000C3E90001704700BF302A0020382A00208F
:1042100020BF40BF20BF7047F0B50D4B89B00546A9
:104220000E4601AA03F1180718685968144603C41A
:104230000833BB422246F7D11B88238008AB1D44BC
:1042400015F81C0C831B5842584109B0F0BD00BF43
:10425000BFB100000860704718B90B6843F0004315
:104260000B60704718B90B6823F000430B60704770
:1042700070B5031D451E00249D4201D1204670BD2E
:1042800015F8016F0022A018082AC0B201D1044617
:10429000F2E716F0010F03D00029F0D00139C9B2BE
:1042A00076080132EFE7000010B50C4A92F83A3177
:1042B00092F839118B4238BF92F8384192F839118F
:1042C00038BF1B195B1ADBB298429BBF92F83911B9
:1042D000D2F83431002053F8210010BD1C02002018
:1042E00030B590F85C3090F85D10994228D190F983
:1042F0001D30002B26DBC48C828CA0F86440C48D5A
:10430000A0F8622054437D2262434FF47A7492FBFA
:10431000F4F2A0F8662090F86020012565F3010210
:10432000D2B2002342F00402013980F87050C36613
:1043300080F8602080F85E5080F85D10184630BD2F
:104340000120FCE70220FAE72DE9F84F0C789442AF
:1043500081460F4690463DD01F4ED6F8683133F85F
:104360003430038000254FF0020B06F5AE7A22B2FE
:10437000D6F86801B9F800C000EBC20130F832206D
:10438000944520D14868012820F003030AD9F3B1ED
:10439000021D1CD04279D2B1027902F00302013A27
:1043A000012A14D8012215444A60EDB213B15146D6
:1043B000FEF79DF9013496F86C21E4B2A24208BFE1
:1043C00000244445D3D13C702846BDE8F88FC1F89D
:1043D00004B0EBE70025F7E71C02002010B5094BFD
:1043E00093F81021824204460AD902464FF48271A2
:1043F000D3F80801FEF790F910B1038CA34200D066
:10440000002010BD1C0200202DE9F04186B00223DF
:10441000052805460F4602930ED0062800F08D8031
:1044200040F28580073880B2FFF7D8FF002800F0FF
:10443000D680D0E900680FE06A4BD3E9066802AB8A
:1044400000930A46684B03210020FFF72BF802284F
:1044500066D0029B002B67D1624CA37C03F0FF0067
:10446000002B64D106AB0222A57443F8102D032162
:1044700000932A465C4BFFF715F8022861D0029B97
:10448000002B45D1237CAB4202D0637CAB423BD1B5
:1044900006AB022243F80C2D002200930321524B5D
:1044A0001046FEF7FFFF022807D101221146032024
:1044B000FEF792F9039B022B39D0039800285CD1B8
:1044C00002230493237C002B31D004AB0093012200
:1044D000454B20740321FEF7E5FF022807D1012296
:1044E00011460320FEF778F9049B022B1FD0049A93
:1044F000002A34D126F00046B0453CD93B4B11464A
:104500000320FEF791F990B9A37C0BB90123029324
:104510000023A374029806B0BDE8F081FFF778FE8F
:10452000029B022BFAD094E7029B012B94D04040CF
:1045300080F311884FF0040002DF2A4BD3E934687E
:104540008AE7637CAB4204D1012211460320FEF7C7
:1045500043F9029B022B92D1FFF75AFEF9E7049B25
:10456000012BE4D100221146204B0320FEF75CF919
:1045700002460028DBD11E4BC1E7039D012DD6D199
:10458000FF2F19D006AB022243F8042D032100931C
:104590003A46154B0020FEF785FF022807D12A4630
:1045A00029460320FEF718F9059B022BBFD0059B77
:1045B00013B1059B012BBAD1E37C002BA4D00D4B8A
:1045C00004229A60002211460320FEF72DF90028EC
:1045D000ADD1E37C002B97D0FFF71AFEF9E701205D
:1045E00099E700BF1C02002055420000802A0020ED
:1045F000202B0020B02A00202DE9F04F8BB00024A2
:10460000FF25DFF814918DF81F50804693461F4612
:1046100001F1040A1C60089426460223099309ABA1
:1046200002933B4B019308AB00930DF11F025B46D5
:1046300041460020FEF770FF02280BD0099B6BB1AA
:10464000404080F311884FF0040002DF4146002013
:10465000FEF7DAFF099B022BF8D0EFE79DF81F2049
:10466000FF2A4DD0062AD8D999F8103107339A423B
:10467000D3DA073A92B24FF48271D9F80801FEF703
:104680004BF80028C9D090F91D30002BC5DBD0E9CC
:10469000003C002B089A12DA816823F000438C4515
:1046A0002CBF62445218D21AC168FF2D01F10401D7
:1046B0000B4408D19DF81F501C461646ADE76345D4
:1046C00038BF6346F0E73146104605930492FEF783
:1046D000B3FF04EB0A018842DDE90423EAD90D485F
:1046E0003444A4FB0001072303FB041106A3D3E910
:1046F0000023FBF7C5FD803038600BB0BDE8F08FBC
:10470000FF2DECD1F9E700BF00CA9A3B0000000082
:10471000554200008D49FD1A1C02002070B5047836
:104720000A78C4F38013B3EBD21F19D104F00F043D
:10473000012C00F1020501F1080608D006223146DD
:104740002846FDF7D8FAB0FA80F0400970BD06227D
:1047500031462846FDF7CFFA0028EFD12046F5E78D
:104760000020F3E70B4A92F8783192F879119942D8
:104770000ED192F8783102EB4303A3F8720192F85C
:1047800078310133DBB2032B08BF002382F8783184
:10479000704700BF1C020020404080F311884FF09A
:1047A000040002DF08B508B1FFF7F6FF08BD0000FE
:1047B000012808B5094B07D19A7C052A02D10022AD
:1047C0009A7408BDFFF7E8FF1B7C052BF9D1404028
:1047D00080F311884FF0040002DF00BF1C020020AC
:1047E000012808B5094B07D19A7C062A02D100227C
:1047F0009A7408BDFFF7D0FF1B7C062BF9D140400F
:1048000080F311884FF0040002DF00BF1C0200207B
:1048100008B528B1034B9B7C052B01D0FFF7BCFFEB
:1048200008BD00BF1C02002008B530B1034B9B7CC3
:10483000C9B2994201D0FFF7AFFF08BD1C020020AA
:10484000044B1B7D23B1012100220846FDF7C4BFA4
:10485000704700BF1C020020062810B50C460AD97C
:10486000094BC21F92B24FF48271D3F80801FDF7D1
:1048700053FF206010BD052804D00628034818BF48
:104880000020F7E70248F5E71C020020EC020020B8
:104890003402002008B50A4B00221A70094BA3F11C
:1048A0001001012818BF0B461146FDF7BDFF28B1C6
:1048B000404080F311884FF0040002DF08BD00BFC4
:1048C00024040020002B0020002208B51146044BD0
:1048D0001046FDF7A9FF08B1FFF75EFF08BD00BF56
:1048E000502A0020002208B51146044B1046FDF75F
:1048F0009BFF08B1FFF750FF08BD00BFD02A002082
:1049000008B50A4A137838B1591C117063B90120EF
:10491000BDE8084003F088BB0BB9FFF73DFF013B42
:10492000DBB21370002BF3D008BD00BFD003002012
:104930000020FFF7E5BF0000C0B208B5031F012B40
:1049400001D9FFF729FF084A137D13B1043B012B5E
:1049500006D804F0CDF828B9BDE8084004F096B8B0
:104960001075F9E708BD00BF1C02002038B50546E8
:104970000C460021084603F0EFFF95F8A830DB064F
:104980004FF001020DD51F21082004F02BF822461C
:10499000002105F1A90004F05FFABDE8384004F0F9
:1049A0004FB808201B2104F01DF82046F5E7000051
:1049B00038B5104A92F8703192F86C410133DBB28D
:1049C0009C4208BF002392F86F419C4201D1FFF73F
:1049D000E3FE92F87051D2F8684124F8350092F85D
:1049E000700104EBC004616082F87031BDE83840AA
:1049F00003F01CBB1C0200202DE9F047254D0646A4
:104A0000A846002795F86D3195F86E219A4236D068
:104A100095F86D91D5F864A1D5F808013AF83920D8
:104A20000AEBC9034FF482715C682760FDF774FEDE
:104A300003463AF839001A8C824222D1D3F8F82082
:104A400042B9D3F8EC20C3F8F8401AB9C3F8EC40E7
:104A5000C3F8FC20D3F8FC2002B11460C3F8FC407A
:104A600098F86D3198F86C210133DBB2013E9A421F
:104A700008BF002316F0FF0688F86D31C2D1BDE8EB
:104A8000F087237967F3010323712146FFF790FF35
:104A9000E6E700BF1C02002073B501220446114660
:104AA0000020FDF799FE94F82020002142F2EA232D
:104AB000073200930846374BD2B2FEF7F3FC30F0D2
:104AC000020105D0404080F311884FF0040002DF5E
:104AD000314B1A7D052A1D461BD1228C187C0732CA
:104AE000904216D1197442F2FB2300930122294B04
:104AF0000846FEF7D7FC30F00202E3D142F202335F
:104B000000931146234B1046FEF7CCFC30F0020315
:104B1000D8D1D4E93B13994203D0D4F8F830994264
:104B200001D11E4E10E00B796FF301030B710B687E
:104B3000C4F8EC30208CFFF73BFFEAE7036831460E
:104B4000C4E93B33FDF7D3FDD4F8EC0018B1D4F839
:104B5000F8309842F2D10023C4E93C33D4F8EC1089
:104B600051B94FF6FF732384D5F88031A34208BFB3
:104B7000C5F8801102B070BD0B796FF301030B71A2
:104B80000B68C4F8EC30C4F8F830208CFFF710FF45
:104B9000E4E700BFA54700001C02002070030020CE
:104BA00038B505460C460021084603F0D5FE95F8B9
:104BB000A8309B064FF001020CD51F21082003F0FE
:104BC00011FF214605F1CA0004F082F9BDE8384022
:104BD00003F03CBF08201B2103F004FF2046F5E74B
:104BE000262810B504460BD027280BD025280BD13A
:104BF000022003F0C7FE2046BDE8104003F0C8BE07
:104C00001A20F6E75020F4E70A2802D802304000C4
:104C1000EFE7272801D80330F9E7FFF7BDFD0000D3
:104C200038B52A4C94F8783094F879209A4206D016
:104C30000133DBB2022B08BF002384F8783094F8EC
:104C4000C83094F8C9209A4206D00133DBB2022B57
:104C500008BF002384F8C83094F878202A23272539
:104C600015FB0235601903F0F1FE635D03F00F03DD
:104C7000022B23D0072B21D002239620237503F08B
:104C8000EFFF002003F05CFF94F82830C3F302022A
:104C9000D3B21946002011F0010F00F1010512D026
:104CA000013B134094F82820C0B263F3020284F859
:104CB00028202530BDE83840FFF792BF0323237535
:104CC00003F054FFE0E749082846E4E71C0200200F
:104CD00073B5164602AA1C46054642F8046D2731F4
:104CE0000120FFF789FC2368FBB10198831B1B029D
:104CF00001D5FFF751FD3146FEF79EFC02461048F4
:104D00000723A2FB000103FB02110BA3D3E900233D
:104D1000FBF7B6FA236818440028206005DB40F250
:104D2000E24068432368834201D802B070BD1B1A79
:104D30002360F7E7AFF3008000CA9A3B0000000051
:104D40008D49FD1A13B500F16C030446826FC168EA
:104D5000808CFFF7BDFF02A9E36E606F40F2E24274
:104D6000B3FBF2F3022221F8023DFCF7D4FF02B0BC
:104D700010BD00001FB53E4C20B1A37C052B75D0A3
:104D8000FFF70AFD237C052B02D0637C052B65D140
:104D900004AB022243F8082D002200930121354B79
:104DA0001046FEF77FFB02280DD00298C0B1029892
:104DB000012819D1E37C002B50D02F4B04229A609C
:104DC0000022114646E0012211461046FDF704FD7F
:104DD000029B022BE9D101210020FEF715FCF7E729
:104DE00002230393237C2BB9404080F311884FF0BA
:104DF000040002DF03AB01222074114600931D4B17
:104E0000FEF750FB02280FD0039AD2B1039C012C6D
:104E1000EAD100221146194B2046FDF705FD024656
:104E20000028E1D1164B13E0012211461046FDF790
:104E3000D3FC039B022BE7D101210020FEF7E4FB0A
:104E4000F7E7A369E16923F000438B42EAD20B4BF9
:104E500011460120FDF7E8FC0028C5D10022094BCE
:104E600011460120FDF7E0FC0028BDD104B010BDC3
:104E70001C02002055420000A02A0020702A0020B9
:104E8000102B0020402A002070B5164C037894F8AF
:104E9000E120DB09B3EBD21F05460E4607D094F89C
:104EA000E100C0F3011010F002000BD170BD00F161
:104EB0000801062204F1E200FCF71DFF0028EED1F4
:104EC0000120F3E795F90030002B09DA6B7B03F042
:104ED000C003402B04D1002EF2D001203070E5E752
:104EE0000020E3E71C02002010B5164A92F8393181
:104EF00092F83A11994201D1FFF74EFC92F839111C
:104F0000D2F8343153F8211092F8703108680B70E0
:104F100092F8393192F838410133DBB29C4208BF34
:104F2000002382F8393102F5A472FDF70FFC28B98D
:104F3000404080F311884FF0040002DFBDE81040CC
:104F400003F074B81C02002010B50120FFF7ACF983
:104F5000044608B9FFF720FC4FF6FF73C380062311
:104F60000371102200210B30FCF702FF3C23E37297
:104F7000BDE81040FFF7B8BF03460A4600F19C01A8
:104F8000D0F89C0010B508B9FFF706FC1C8CA3F8FC
:104F9000A24083F8A42007240A4A83F8A04092F88C
:104FA000704183F89C4002F5A472FDF7CFFB28B94D
:104FB000404080F311884FF0040002DFBDE810404C
:104FC00003F034B81C020020404080F311884FF0F9
:104FD000040002DF70B506460320FFF765F90446BA
:104FE00020B34FF6FF73C380114B93F8E1305A079B
:104FF00018D0C3F30203DAB2012A03D0042A02D084
:10500000FFF7E2FF0323237104F1080566B103F003
:10501000C5FD00F07F00637A1D44A870FFF764FFB0
:10502000002070BD0223EEE77F20F4E70120F8E7BF
:105030001C02002030B50468002C89B019DAD0E9D0
:10504000013524F000449D4234BFE41A641B0A4B2E
:105050000593A4B200230690CDE90333CDE90143C3
:1050600018460094FEF7D4F930F0020301D0FFF7A0
:1050700093FB09B030BD00BF6542000037B502ADFB
:10508000104B45F8043D044603F04CFC002003F0AF
:1050900073FC0D4803F010FC0121204603F05CFC7A
:1050A000284603F087FC620002F0FE02252108205A
:1050B00003F098FC054940F25B6003F023FD03B068
:1050C00030BD00BFD6BE898EE95F00005555550042
:1050D00008B5054B0022986011461046FDF7A4FB69
:1050E00008B1FFF759FB08BD902A00202DE9F04FC9
:1050F00014681D688DB0002C81460B9190469B462C
:105100009DF85CA003DA169CAC4238BF2C46AC423A
:105110004E4F1BD941F27453CDE907734C4B00211C
:10512000CDE90413631B009306914B46CDE90211B0
:10513000019101220846FEF721F930F002032BD03D
:10514000404080F311884FF0040002DF1DD200239D
:105150001A4619461846FFF7B7FB41F28953CDE9C5
:1051600007733C4B00212C1BCDE9041306914B46E1
:10517000CDE90211CDE9004101220846FEF7FEF813
:1051800030F00203DCD12C460BE000231A4619460E
:105190001846FFF799FB00231A4619461846FFF7F1
:1051A000A1FB2D4E0B9BF36041F2A153CDE9077398
:1051B000199B06930022189B0593CDE903224B46C9
:1051C000CDE90122009411461046FEF7D7F830F0E1
:1051D0000203B5D10520FFF77BFFD6F87C31AB4247
:1051E00023D0CBF80030D8F80030002BBCBF23F020
:1051F0000043C8F80030D8F80020D6F87C118A4265
:1052000038BF0A4641F2CF51A3B292B2CDE905713F
:105210000021CDE901230092CDE903115246084651
:10522000FEF7F6F830F002038AD1FF20FFF7E4FB27
:105230000A4B012211460020C3F808A0FDF7F4FA3A
:1052400000287FF47DAF0DB0BDE8F08FA5470000CA
:10525000C9480000E54800001C020020302B002057
:105260001FB50B4A137C03F0FF040BB1FFF794FA50
:10527000052313740394074CCDE90134136A00939A
:1052800002F11C031832FFF731FF04B010BD00BF5C
:105290001C0200201555000007B50520FFF718FF78
:1052A00041F69303002100930522064B0846FEF7C2
:1052B000F9F830F0020301D0FFF76EFA03B05DF8A1
:1052C00004FB00BF754D00002DE9F843214D95F812
:1052D0003A4195F8383195F84C910134E4B2A34243
:1052E00008BF002405F5A07705F59478B9F1000F03
:1052F00003D095F839319C4201D1BDE8F883384696
:10530000FDF7DCF906460028F7D04046FDF7D6F950
:1053100028B930461049BDE8F843FDF7E8B9066002
:1053200095F83A21D5F8343143F8220085F83A410E
:1053300095F838310134E4B2A34208BF002495F84F
:105340004C3109F1FF39013B85F84C315FFA89F99D
:10535000CCE700BF1C0200205C03002010B52C4CE1
:1053600094F81021002A37D004F586734FF4827127
:10537000D4F80801FDF77EF9264B94F83221B4F8F1
:105380003011D4F82401FDF775F994F8381194F828
:105390001021214BD4F83C010A440821FDF76AF999
:1053A0001E4BD4F8500102222421FDF763F994F832
:1053B0006C21D4F858011A4BB4F86011013A92B23A
:1053C000FDF758F91448FDF779F940B9404080F3EA
:1053D00011884FF0040002DFC4F80C21CCE7114A19
:1053E000111FFDF7B0F994F8293043F0380384F821
:1053F00029304FF6FF73A4F81A31A4F81C3142F299
:105400001F53A4F81E31BDE81040FFF75DBF00BF79
:105410001C020020440300205C03002070030020D5
:105420007803002064030020024B186843680021C1
:105430001B6818471C020020024B186843680021B3
:105440005B6818471C020020F0B4484003274FEA6D
:10545000102C082600240CF00105013E45EA440505
:1054600016F0FF06ECB24FEA5C0CF4D125022DB227
:10547000C0B24FF0080C344600F0010646EA44047E
:105480000CF1FF3616F0FF0CE4B24FEA5000F3D1F6
:105490002C4304EB0414013F0C4417F0FF07A0B2A7
:1054A000D5D125244140B1FBF4F004FB1010C0B26B
:1054B000C40800F00705145D2C41E40705D45943E6
:1054C000090C1046F0BCFEF7D3BEF0BC70470000DC
:1054D00070B514460E460546FEF7ACF82146FEF7B9
:1054E000ABF8C41C092C11D9094B1B7813B100204F
:1054F000FFF7D0F9324600212846FFF79BFDAB6845
:105500001C44262C00D8AC60012000E0002070BDB7
:1055100024040020294BDA7C70B502F0FF01054617
:105520001C462AB1404080F311884FF0040002DF8E
:105530001B7CDBB2052BF5D1A06094F82900012675
:1055400000F00700E67421746374FFF797FD94F888
:10555000293094F82820C3F3C20363F3020284F8CD
:105560002820FFF75DFB94F8293013F0C00F07D017
:10557000304602F0DFFF821C4178007803F026FB02
:10558000E26805F10901012003F076FB03F046FC17
:105590002A4605210A48FFF79BFF034628B104234A
:1055A0002375BDE8704003F071BA064A0146FDF765
:1055B000F1FF30F00203B5D170BD00BF1C02002026
:1055C000340200204148000010B5044603F0AAF957
:1055D000002003F0D1F90A4803F06EF904F110003D
:1055E00003F0E8F9637DA17D1B0243EA0143217DBD
:1055F00040F25B601943BDE8104003F083BA00BF7E
:10560000E95F00002DE9F8431C46584BDA7C074659
:1056100002F0FF061D462AB1404080F311884FF08A
:10562000040002DF1A7C238CD2B207339A42F3D1F2
:105630000323EB74A5F8186101232B75238DC5F89E
:105640001441D2B26385A860268520462E746A7400
:10565000FFF7BAFF962003F003FB3346324631468C
:10566000304603F079FA95F83921D5F8343153F8FA
:10567000221020460831FFF779F9637F580604F1BC
:1056800017024AD5608CE18B013803F03F0380B2EA
:10569000FFF7DAFEFFF7A4FAD4E91123134400223E
:1056A0006264226CA364934288BFA264D4E913238A
:1056B000002613442365EA68E66407F109013046D1
:1056C00003F0DAFA804603F075FB304603F094FBF2
:1056D000236DA26C78333146304603EB420903F068
:1056E000C2F9C84431468044304603F0BEF9404414
:1056F00003F042FB94F8201007313A46C9B2204625
:10570000FFF7E6FE034640B304232B7503F0BEF912
:105710000220BDE8F843FFF76FB9618DA67F01FB5A
:105720000666E17F25200E4496FBF0F100FB116632
:10573000F0B2C108E077515C06F0070641FA06F6C0
:10574000F10703F03F03A5D4B0FBF3F103FB110114
:10575000C9B21046FEF78CFD9CE7054A0146FDF7ED
:1057600019FF30F002037FF457AFD1E71C0200208D
:105770004148000010B590F8A840D0F8F02014F08F
:10578000800F18D1D0F8EC30ABB1240713D4D0F887
:10579000F840A34204BF1C68C0F8F84092B91A68E8
:1057A0000A601960C0F8F010C0F8F4100B680BB96B
:1057B000C0F8FC1010BD2AB9D0F8EC300B60C0F86E
:1057C000EC10EFE7D0F8F4301A680A601960EBE7E4
:1057D00010B490F8A84024070A460FD5D0F8F0106E
:1057E00031B9D0F8EC101160C0F8EC2010BC704753
:1057F000D0F8F430196811601A60F7E710BCFFF7B1
:10580000B9BF0000F8B5214F054607F5AA700E464E
:10581000FCF754FF0446B0B333797179D7F81421FB
:1058200043F07F4343F47E0343F4435343F01003B8
:1058300043EA0123B17943EA0143D2F88C10C1F362
:1058400010010B40C2F88C3092F8383043F020033E
:1058500082F83830037943F00303037108220923E7
:105860004371C37100211044FCF782FAD5F88C30E3
:1058700023721A0A1B0C28466272A3722146FFF794
:10588000A7FF0020F8BD0120FCE700BF1C0200209C
:105890002DE9F04F6F4D1C462B7C8FB0804689461A
:1058A0002BB1404080F311884FF0040002DF94F8E0
:1058B00020300733DBB22B7494F91D30002B09DA4A
:1058C000E36B616C02FB03330B44216C63648B421A
:1058D00088BF6164268D94F85C303244668C92B245
:1058E0002285324496B294F85D209A4271D0052008
:1058F000FFF7EEFB94F85E30013B032BD1D8DFE8D5
:1059000013F004002E027002B902D5F880310BB9F1
:10591000C5F8804194F8603013F0030300F0A680CE
:105920004D48FCF7CBFE0546002852D094F8603075
:1059300003F00302012AB4D16FF3010384F860304D
:10594000E38C0279063333449BB242F00302A4F89D
:10595000683002710C2242710022C27194F87020EA
:10596000027240F2E241E26EB2FBF1F2A0F80920CD
:10597000B4F86220A0F80B20B4F86420A0F80D2041
:10598000B4F86620A0F80F202268A0F81130002A91
:10599000C4F878800ADAD4E9011322F000428B427D
:1059A0002CBF434408EB01039B1AA36705F10903CD
:1059B0002A4A63672A4BC3E90242012211460020AA
:1059C000FCF732FF00287FF46CAF29462046FFF732
:1059D000D1FE94F8992094F898309A421DD0052071
:1059E000FFF776FB1C48FCF769FE0146A8B194F866
:1059F000983084F89930037943F00303037102234C
:105A00004371C37194F89A3003722046FFF7B2FED7
:105A1000E38D012B98BF0133A38694F8203094F9CD
:105A20001D5010481049A268073331EA250128BFEC
:105A30000146DBB2CDE90023CDE90214231D224645
:105A4000494640460136FFF751FB66840FB0BDE87A
:105A5000F08F00BF1C02002070030020454D0000A5
:105A6000C02A002005560000F1760000B4F86870E6
:105A7000F71BBFB23804ACD494F85C2084F85D20E6
:105A8000D5F880212B74944208BFC5F88031A28CD0
:105A9000B4F862309A4214D1B4F86410E38C99429D
:105AA0000FD140F2E2435A43B4F8663042F210712B
:105AB00001FB0323013B93FBF2F3E28D9BB29A427D
:105AC00016D00220FEF7F0FB00283FF4EAAE238C4C
:105AD000C380082303710023C372B4F8623083814A
